{
    "_format": "hh-sol-artifact-1",
    "contractName": "InfinitumFarm",
    "sourceName": "contracts/InfinitumFarm.sol",
    "abi": [
        {
            "inputs": [
                {
                    "internalType": "address",
                    "name": "_daiToken",
                    "type": "address"
                },
                {
                    "internalType": "address",
                    "name": "_infinitumToken",
                    "type": "address"
                }
            ],
            "stateMutability": "nonpayable",
            "type": "constructor"
        },
        {
            "inputs": [
                {
                    "internalType": "address",
                    "name": "",
                    "type": "address"
                }
            ],
            "name": "balanceOf",
            "outputs": [
                {
                    "internalType": "uint256",
                    "name": "",
                    "type": "uint256"
                }
            ],
            "stateMutability": "view",
            "type": "function"
        },
        {
            "inputs": [],
            "name": "daiToken",
            "outputs": [
                {
                    "internalType": "contract IERC20",
                    "name": "",
                    "type": "address"
                }
            ],
            "stateMutability": "view",
            "type": "function"
        },
        {
            "inputs": [],
            "name": "duration",
            "outputs": [
                {
                    "internalType": "uint256",
                    "name": "",
                    "type": "uint256"
                }
            ],
            "stateMutability": "view",
            "type": "function"
        },
        {
            "inputs": [
                {
                    "internalType": "address",
                    "name": "_account",
                    "type": "address"
                }
            ],
            "name": "earned",
            "outputs": [
                {
                    "internalType": "uint256",
                    "name": "",
                    "type": "uint256"
                }
            ],
            "stateMutability": "view",
            "type": "function"
        },
        {
            "inputs": [],
            "name": "finishAt",
            "outputs": [
                {
                    "internalType": "uint256",
                    "name": "",
                    "type": "uint256"
                }
            ],
            "stateMutability": "view",
            "type": "function"
        },
        {
            "inputs": [],
            "name": "getYield",
            "outputs": [],
            "stateMutability": "nonpayable",
            "type": "function"
        },
        {
            "inputs": [],
            "name": "infinitumToken",
            "outputs": [
                {
                    "internalType": "contract IERC20",
                    "name": "",
                    "type": "address"
                }
            ],
            "stateMutability": "view",
            "type": "function"
        },
        {
            "inputs": [],
            "name": "lastTimeRewardApplicable",
            "outputs": [
                {
                    "internalType": "uint256",
                    "name": "",
                    "type": "uint256"
                }
            ],
            "stateMutability": "view",
            "type": "function"
        },
        {
            "inputs": [
                {
                    "internalType": "uint256",
                    "name": "_inftAmount",
                    "type": "uint256"
                }
            ],
            "name": "modifyRewardAmount",
            "outputs": [],
            "stateMutability": "nonpayable",
            "type": "function"
        },
        {
            "inputs": [],
            "name": "owner",
            "outputs": [
                {
                    "internalType": "address",
                    "name": "",
                    "type": "address"
                }
            ],
            "stateMutability": "view",
            "type": "function"
        },
        {
            "inputs": [],
            "name": "rewardPerToken",
            "outputs": [
                {
                    "internalType": "uint256",
                    "name": "",
                    "type": "uint256"
                }
            ],
            "stateMutability": "view",
            "type": "function"
        },
        {
            "inputs": [],
            "name": "rewardPerTokenStored",
            "outputs": [
                {
                    "internalType": "uint256",
                    "name": "",
                    "type": "uint256"
                }
            ],
            "stateMutability": "view",
            "type": "function"
        },
        {
            "inputs": [],
            "name": "rewardRate",
            "outputs": [
                {
                    "internalType": "uint256",
                    "name": "",
                    "type": "uint256"
                }
            ],
            "stateMutability": "view",
            "type": "function"
        },
        {
            "inputs": [
                {
                    "internalType": "address",
                    "name": "",
                    "type": "address"
                }
            ],
            "name": "rewards",
            "outputs": [
                {
                    "internalType": "uint256",
                    "name": "",
                    "type": "uint256"
                }
            ],
            "stateMutability": "view",
            "type": "function"
        },
        {
            "inputs": [
                {
                    "internalType": "uint256",
                    "name": "_duration",
                    "type": "uint256"
                }
            ],
            "name": "setRewardsDuration",
            "outputs": [],
            "stateMutability": "nonpayable",
            "type": "function"
        },
        {
            "inputs": [
                {
                    "internalType": "uint256",
                    "name": "_daiAmount",
                    "type": "uint256"
                }
            ],
            "name": "stakeDAI",
            "outputs": [],
            "stateMutability": "nonpayable",
            "type": "function"
        },
        {
            "inputs": [],
            "name": "totalSupply",
            "outputs": [
                {
                    "internalType": "uint256",
                    "name": "",
                    "type": "uint256"
                }
            ],
            "stateMutability": "view",
            "type": "function"
        },
        {
            "inputs": [],
            "name": "updatedAt",
            "outputs": [
                {
                    "internalType": "uint256",
                    "name": "",
                    "type": "uint256"
                }
            ],
            "stateMutability": "view",
            "type": "function"
        },
        {
            "inputs": [
                {
                    "internalType": "address",
                    "name": "",
                    "type": "address"
                }
            ],
            "name": "userRewardPerTokenPaid",
            "outputs": [
                {
                    "internalType": "uint256",
                    "name": "",
                    "type": "uint256"
                }
            ],
            "stateMutability": "view",
            "type": "function"
        },
        {
            "inputs": [
                {
                    "internalType": "uint256",
                    "name": "_daiAmount",
                    "type": "uint256"
                }
            ],
            "name": "withdrawDAI",
            "outputs": [],
            "stateMutability": "nonpayable",
            "type": "function"
        }
    ],
    "bytecode": "0x60c06040523480156200001157600080fd5b5060405162001a9f38038062001a9f833981810160405281019062000037919062000157565b336000806101000a81548173ffffffffffffffffffffffffffffffffffffffff021916908373ffffffffffffffffffffffffffffffffffffffff1602179055508173ffffffffffffffffffffffffffffffffffffffff1660808173ffffffffffffffffffffffffffffffffffffffff1660601b815250508073ffffffffffffffffffffffffffffffffffffffff1660a08173ffffffffffffffffffffffffffffffffffffffff1660601b8152505050506200019e565b600080fd5b600073ffffffffffffffffffffffffffffffffffffffff82169050919050565b60006200011f82620000f2565b9050919050565b620001318162000112565b81146200013d57600080fd5b50565b600081519050620001518162000126565b92915050565b60008060408385031215620001715762000170620000ed565b5b6000620001818582860162000140565b9250506020620001948582860162000140565b9150509250929050565b60805160601c60a05160601c6118b9620001e6600039600081816108c601528181610d810152610fc001526000818161060301528181610b5e0152610c1001526118b96000f3fe608060405234801561001057600080fd5b506004361061012b5760003560e01c806380faa57d116100ad578063cc1a378f11610071578063cc1a378f14610322578063cd3daf9d1461033e578063df136d651461035c578063f205b5331461037a578063ff809f7e146103985761012b565b806380faa57d1461027c5780638b8763471461029a5780638da5cb5b146102ca5780639add7438146102e8578063be22f546146103045761012b565b806367d3b488116100f457806367d3b488146101e857806370a08231146102065780637519ab50146102365780637b0a47ee146102545780637c262871146102725761012b565b80628cc262146101305780630700037d146101605780630fb5a6b41461019057806318160ddd146101ae57806364aab239146101cc575b600080fd5b61014a60048036038101906101459190611154565b6103b4565b604051610157919061119a565b60405180910390f35b61017a60048036038101906101759190611154565b6104b6565b604051610187919061119a565b60405180910390f35b6101986104ce565b6040516101a5919061119a565b60405180910390f35b6101b66104d4565b6040516101c3919061119a565b60405180910390f35b6101e660048036038101906101e191906111e1565b6104da565b005b6101f0610724565b6040516101fd919061119a565b60405180910390f35b610220600480360381019061021b9190611154565b61072a565b60405161022d919061119a565b60405180910390f35b61023e610742565b60405161024b919061119a565b60405180910390f35b61025c610748565b604051610269919061119a565b60405180910390f35b61027a61074e565b005b610284610977565b604051610291919061119a565b60405180910390f35b6102b460048036038101906102af9190611154565b61098a565b6040516102c1919061119a565b60405180910390f35b6102d26109a2565b6040516102df919061121d565b60405180910390f35b61030260048036038101906102fd91906111e1565b6109c6565b005b61030c610c0e565b6040516103199190611297565b60405180910390f35b61033c600480360381019061033791906111e1565b610c32565b005b610346610d0e565b604051610353919061119a565b60405180910390f35b610364610d79565b604051610371919061119a565b60405180910390f35b610382610d7f565b60405161038f9190611297565b60405180910390f35b6103b260048036038101906103ad91906111e1565b610da3565b005b6000600760008373ffffffffffffffffffffffffffffffffffffffff1673ffffffffffffffffffffffffffffffffffffffff16815260200190815260200160002054670de0b6b3a7640000600660008573ffffffffffffffffffffffffffffffffffffffff1673ffffffffffffffffffffffffffffffffffffffff16815260200190815260200160002054610447610d0e565b61045191906112e1565b600960008673ffffffffffffffffffffffffffffffffffffffff1673ffffffffffffffffffffffffffffffffffffffff1681526020019081526020016000205461049b9190611315565b6104a5919061139e565b6104af91906113cf565b9050919050565b60076020528060005260406000206000915090505481565b60015481565b60085481565b336104e3610d0e565b6005819055506104f1610977565b600381905550600073ffffffffffffffffffffffffffffffffffffffff168173ffffffffffffffffffffffffffffffffffffffff16146105be57610534816103b4565b600760008373ffffffffffffffffffffffffffffffffffffffff1673ffffffffffffffffffffffffffffffffffffffff16815260200190815260200160002081905550600554600660008373ffffffffffffffffffffffffffffffffffffffff1673ffffffffffffffffffffffffffffffffffffffff168152602001908152602001600020819055505b60008211610601576040517f08c379a00000000000000000000000000000000000000000000000000000000081526004016105f8906114a8565b60405180910390fd5b7f000000000000000000000000000000000000000000000000000000000000000073ffffffffffffffffffffffffffffffffffffffff166323b872dd3330856040518463ffffffff1660e01b815260040161065e939291906114c8565b602060405180830381600087803b15801561067857600080fd5b505af115801561068c573d6000803e3d6000fd5b505050506040513d601f19601f820116820180604052508101906106b09190611537565b5081600960003373ffffffffffffffffffffffffffffffffffffffff1673ffffffffffffffffffffffffffffffffffffffff168152602001908152602001600020600082825461070091906113cf565b92505081905550816008600082825461071991906113cf565b925050819055505050565b60025481565b60096020528060005260406000206000915090505481565b60035481565b60045481565b33610757610d0e565b600581905550610765610977565b600381905550600073ffffffffffffffffffffffffffffffffffffffff168173ffffffffffffffffffffffffffffffffffffffff1614610832576107a8816103b4565b600760008373ffffffffffffffffffffffffffffffffffffffff1673ffffffffffffffffffffffffffffffffffffffff16815260200190815260200160002081905550600554600660008373ffffffffffffffffffffffffffffffffffffffff1673ffffffffffffffffffffffffffffffffffffffff168152602001908152602001600020819055505b6000600760003373ffffffffffffffffffffffffffffffffffffffff1673ffffffffffffffffffffffffffffffffffffffff1681526020019081526020016000205490506000811115610973576000600760003373ffffffffffffffffffffffffffffffffffffffff1673ffffffffffffffffffffffffffffffffffffffff168152602001908152602001600020819055507f000000000000000000000000000000000000000000000000000000000000000073ffffffffffffffffffffffffffffffffffffffff1663a9059cbb33836040518363ffffffff1660e01b815260040161091f929190611564565b602060405180830381600087803b15801561093957600080fd5b505af115801561094d573d6000803e3d6000fd5b505050506040513d601f19601f820116820180604052508101906109719190611537565b505b5050565b6000610985426002546110d7565b905090565b60066020528060005260406000206000915090505481565b60008054906101000a900473ffffffffffffffffffffffffffffffffffffffff1681565b336109cf610d0e565b6005819055506109dd610977565b600381905550600073ffffffffffffffffffffffffffffffffffffffff168173ffffffffffffffffffffffffffffffffffffffff1614610aaa57610a20816103b4565b600760008373ffffffffffffffffffffffffffffffffffffffff1673ffffffffffffffffffffffffffffffffffffffff16815260200190815260200160002081905550600554600660008373ffffffffffffffffffffffffffffffffffffffff1673ffffffffffffffffffffffffffffffffffffffff168152602001908152602001600020819055505b60008211610aed576040517f08c379a0000000000000000000000000000000000000000000000000000000008152600401610ae4906115ff565b60405180910390fd5b81600960003373ffffffffffffffffffffffffffffffffffffffff1673ffffffffffffffffffffffffffffffffffffffff1681526020019081526020016000206000828254610b3c91906112e1565b925050819055508160086000828254610b5591906112e1565b925050819055507f000000000000000000000000000000000000000000000000000000000000000073ffffffffffffffffffffffffffffffffffffffff1663a9059cbb33846040518363ffffffff1660e01b8152600401610bb7929190611564565b602060405180830381600087803b158015610bd157600080fd5b505af1158015610be5573d6000803e3d6000fd5b505050506040513d601f19601f82011682018060405250810190610c099190611537565b505050565b7f000000000000000000000000000000000000000000000000000000000000000081565b60008054906101000a900473ffffffffffffffffffffffffffffffffffffffff1673ffffffffffffffffffffffffffffffffffffffff163373ffffffffffffffffffffffffffffffffffffffff1614610cc0576040517f08c379a0000000000000000000000000000000000000000000000000000000008152600401610cb790611691565b60405180910390fd5b4260025410610d04576040517f08c379a0000000000000000000000000000000000000000000000000000000008152600401610cfb90611723565b60405180910390fd5b8060018190555050565b6000806008541415610d24576005549050610d76565b600854670de0b6b3a7640000600354610d3b610977565b610d4591906112e1565b600454610d529190611315565b610d5c9190611315565b610d66919061139e565b600554610d7391906113cf565b90505b90565b60055481565b7f000000000000000000000000000000000000000000000000000000000000000081565b60008054906101000a900473ffffffffffffffffffffffffffffffffffffffff1673ffffffffffffffffffffffffffffffffffffffff163373ffffffffffffffffffffffffffffffffffffffff1614610e31576040517f08c379a0000000000000000000000000000000000000000000000000000000008152600401610e2890611691565b60405180910390fd5b6000610e3b610d0e565b600581905550610e49610977565b600381905550600073ffffffffffffffffffffffffffffffffffffffff168173ffffffffffffffffffffffffffffffffffffffff1614610f1657610e8c816103b4565b600760008373ffffffffffffffffffffffffffffffffffffffff1673ffffffffffffffffffffffffffffffffffffffff16815260200190815260200160002081905550600554600660008373ffffffffffffffffffffffffffffffffffffffff1673ffffffffffffffffffffffffffffffffffffffff168152602001908152602001600020819055505b600254421115610f395760015482610f2e919061139e565b600481905550610f79565b600042600254610f4991906112e1565b600454610f569190611315565b90506001548382610f6791906113cf565b610f71919061139e565b600481905550505b600060045411610fbe576040517f08c379a0000000000000000000000000000000000000000000000000000000008152600401610fb59061178f565b60405180910390fd5b7f000000000000000000000000000000000000000000000000000000000000000073ffffffffffffffffffffffffffffffffffffffff166370a08231306040518263ffffffff1660e01b8152600401611017919061121d565b60206040518083038186803b15801561102f57600080fd5b505afa158015611043573d6000803e3d6000fd5b505050506040513d601f19601f8201168201806040525081019061106791906117c4565b6001546004546110779190611315565b11156110b8576040517f08c379a00000000000000000000000000000000000000000000000000000000081526004016110af90611863565b60405180910390fd5b600154426110c691906113cf565b600281905550426003819055505050565b6000818311156110e757816110e9565b825b905092915050565b600080fd5b600073ffffffffffffffffffffffffffffffffffffffff82169050919050565b6000611121826110f6565b9050919050565b61113181611116565b811461113c57600080fd5b50565b60008135905061114e81611128565b92915050565b60006020828403121561116a576111696110f1565b5b60006111788482850161113f565b91505092915050565b6000819050919050565b61119481611181565b82525050565b60006020820190506111af600083018461118b565b92915050565b6111be81611181565b81146111c957600080fd5b50565b6000813590506111db816111b5565b92915050565b6000602082840312156111f7576111f66110f1565b5b6000611205848285016111cc565b91505092915050565b61121781611116565b82525050565b6000602082019050611232600083018461120e565b92915050565b6000819050919050565b600061125d611258611253846110f6565b611238565b6110f6565b9050919050565b600061126f82611242565b9050919050565b600061128182611264565b9050919050565b61129181611276565b82525050565b60006020820190506112ac6000830184611288565b92915050565b7f4e487b7100000000000000000000000000000000000000000000000000000000600052601160045260246000fd5b60006112ec82611181565b91506112f783611181565b92508282101561130a576113096112b2565b5b828203905092915050565b600061132082611181565b915061132b83611181565b9250817fffffffffffffffffffffffffffffffffffffffffffffffffffffffffffffffff0483118215151615611364576113636112b2565b5b828202905092915050565b7f4e487b7100000000000000000000000000000000000000000000000000000000600052601260045260246000fd5b60006113a982611181565b91506113b483611181565b9250826113c4576113c361136f565b5b828204905092915050565b60006113da82611181565b91506113e583611181565b9250827fffffffffffffffffffffffffffffffffffffffffffffffffffffffffffffffff0382111561141a576114196112b2565b5b828201905092915050565b600082825260208201905092915050565b7f496e66696e6974756d4661726d3a204e6f2044414920746f6b656e7320746f2060008201527f7374616b65000000000000000000000000000000000000000000000000000000602082015250565b6000611492602583611425565b915061149d82611436565b604082019050919050565b600060208201905081810360008301526114c181611485565b9050919050565b60006060820190506114dd600083018661120e565b6114ea602083018561120e565b6114f7604083018461118b565b949350505050565b60008115159050919050565b611514816114ff565b811461151f57600080fd5b50565b6000815190506115318161150b565b92915050565b60006020828403121561154d5761154c6110f1565b5b600061155b84828501611522565b91505092915050565b6000604082019050611579600083018561120e565b611586602083018461118b565b9392505050565b7f496e66696e6974756d4661726d3a204e6f2044414920746f6b656e7320746f2060008201527f7769746864726177000000000000000000000000000000000000000000000000602082015250565b60006115e9602883611425565b91506115f48261158d565b604082019050919050565b60006020820190508181036000830152611618816115dc565b9050919050565b7f496e66696e6974756d4661726d3a2043616c6c6572206973206e6f7420616e6460008201527f206f776e6572206f6620636f6e74726163740000000000000000000000000000602082015250565b600061167b603283611425565b91506116868261161f565b604082019050919050565b600060208201905081810360008301526116aa8161166e565b9050919050565b7f496e66696e6974756d4661726d3a20526577617264206475726174696f6e206860008201527f6173206e6f742066696e69736865642079657400000000000000000000000000602082015250565b600061170d603383611425565b9150611718826116b1565b604082019050919050565b6000602082019050818103600083015261173c81611700565b9050919050565b7f496e66696e6974756d4661726d3a205265776172642072617465203d20300000600082015250565b6000611779601e83611425565b915061178482611743565b602082019050919050565b600060208201905081810360008301526117a88161176c565b9050919050565b6000815190506117be816111b5565b92915050565b6000602082840312156117da576117d96110f1565b5b60006117e8848285016117af565b91505092915050565b7f496e66696e6974756d4661726d3a2052657761726420616d6f756e74203e206260008201527f616c616e63650000000000000000000000000000000000000000000000000000602082015250565b600061184d602683611425565b9150611858826117f1565b604082019050919050565b6000602082019050818103600083015261187c81611840565b905091905056fea26469706673582212203def1ca0f2d8b5309f0f76a8f4b2fc38a0f334d34524052c08da8900501e663d64736f6c63430008080033",
    "linkReferences": {},
    "deployedLinkReferences": {}
}